:100000000C943E000C945B000C945B000C945B0021
:100010000C945B000C945D000C945B000C947200DB
:100020000C945B000C94B8000C945B000C945B0087
:100030000C945B000C9485000C94A8000C945B005D
:100040000C945B000C945B000C945B000C945B00C4
:100050000C945B000C945B000C945B000C945B00B4
:100060000C945B000C945B000C945B000C945B00A4
:100070000C945B000C945B000C945B0011241FBE7D
:10008000CFEFD8E0DEBFCDBF11E0A0E0B1E0EAEEF7
:10009000FEE102C005900D92A033B107D9F711E03F
:1000A000A0E3B1E001C01D92AB33B107E1F70E94BC
:1000B00076030C94730F0C9400001F920F920FB6EE
:1000C0000F9211248F931A9907C02B9A8AE080937C
:1000D000300181E0809331018F910F900FBE0F901E
:1000E0001F9018951F920F920FB60F9211244E99E0
:1000F00007C02B98109231011092300110923201FA
:100100000F900FBE0F901F9018951F920F920FB671
:100110000F9211248F9380913101882341F02B9A03
:1001200080913001882349F481E0809332018F91DE
:100130000F900FBE0F901F90189580913001815045
:10014000809330018F910F900FBE0F901F901895E4
:100150001F920F920FB60F9211248F93809131014D
:1001600081112B988F910F900FBE0F901F901895B3
:100170001F920F920FB60F9211248F939F9380912D
:100180003201882321F08BB190E189278BB99F91AF
:100190008F910F900FBE0F901F901895579A3F9A0E
:1001A000479A239A549A22982A9A56985E9AE8E691
:1001B000F0E080818A608083ECE6F0E080818460FA
:1001C0008083E3E7F0E08081806480830895E0EB42
:1001D000F0E0808188608083E1EBF0E080818460E2
:1001E000808385E98093B300E0E7F0E0808182605E
:1001F00080830895E1E8F0E088E080838081846076
:100200008083E8E8F0E08BE197EB91838083808145
:10021000918165E070E00E94580C70938B006093B0
:100220008A0086E080936F0008958BE197EB9093AE
:100230008700809386009093890080938800E1E88E
:10024000F0E080818861808380818560808308956B
:10025000CF92DF92EF92FF921F93DF93CF93CDB7B0
:10026000DEB72C970FB6F894DEBF0FBECDBF7E0170
:100270000894E11CF11CD701E4E2F1E08CE001906C
:100280000D928150E1F780E40E9499078DE0C82E1D
:10029000D12CCC0EDD1EF7011081812F0E94F306B8
:1002A000812F0E94F306812F0E94F306812F0E9466
:1002B000F306812F0E94F306812F0E94F306812FFF
:1002C0000E94F306812F0E94F30682E090E0E80E80
:1002D000F91EEC14FD04F9F62C960FB6F894DEBF67
:1002E0000FBECDBFCF91DF911F91FF90EF90DF90B8
:1002F000CF9008950F931F93DF93CF93CDB7DEB7C1
:1003000029970FB6F894DEBF0FBECDBF80913101A3
:10031000882381F480E063E171E00E941609299648
:100320000FB6F894DEBF0FBECDBFCF91DF911F9106
:100330000F91089580E060E071E00E94160920911D
:1003400030018DB79EB708970FB6F8949EBF0FBEC9
:100350008DBFEDB7FEB731968E010F5F1F4FADB762
:10036000BEB712961C930E93119789E090E0938389
:1003700082838EE091E095838483268317820E9496
:100380008E0C8DB79EB708960FB6F8949EBF0FBE21
:100390008DBF80E4B8010E941609C1CF2F923F9211
:1003A0004F925F926F927F928F929F92AF92BF9285
:1003B000CF92DF92EF92FF920F931F93DF93CF9331
:1003C000CDB7DEB728970FB6F894DEBF0FBECDBF0E
:1003D0002D833E834F835887980140E050E0298366
:1003E0003A834B835C832FE430E040E050E00E948E
:1003F000390C29813A814B815C810E946C0C190176
:100400002A016091370170913801809139019091F2
:100410003A01261637064806590608F02BC1C201D4
:10042000B10125E030E040E050E00E946C0C590141
:100430006A0135014601822F80580E949907609118
:100440003701709138018091390190913A0125E08E
:1004500030E040E050E00E946C0CC901DA017C0100
:100460008D01EA14FB040C051D0568F480E00E9470
:10047000F3060894E11CF11C011D111DEA14FB0494
:100480000C051D0598F3C201B10125E030E040E004
:1004900050E00E946C0C862F0E94F30630E1631638
:1004A00071048104910470F480E00E94F3060894C2
:1004B000611C711C811C911C40E164167104810453
:1004C000910490F320923701309238014092390123
:1004D00050923A016D817E818F8198852FE430E0C2
:1004E00040E050E00E94390C29813A814B815C81C7
:1004F0000E946C0C19012A01609133017091340142
:100500008091350190913601261637064806590626
:1005100008F074C0C201B10125E030E040E050E0D5
:100520000E946C0C59016A0135014601822F8054EA
:100530000E949907609133017091340180913501D7
:100540009091360125E030E040E050E00E946C0CD4
:10055000C901DA017C018D01EA14FB040C051D05BB
:1005600068F480E00E94F3060894E11CF11C011D70
:10057000111DEA14FB040C051D0598F3C201B1011D
:1005800025E030E040E050E00E946C0C862F0E9495
:10059000F30650E1651671048104910470F480E063
:1005A0000E94F3060894611C711C811C911C80E15F
:1005B000681671048104910490F320923301309203
:1005C0003401409235015092360128960FB6F894C6
:1005D000DEBF0FBECDBFCF91DF911F910F91FF9076
:1005E000EF90DF90CF90BF90AF909F908F907F90D3
:1005F0006F905F904F903F902F90089525E030E0EE
:1006000040E050E00E946C0C822F80540E949907B9
:1006100060913301709134018091350190913601E0
:1006200025E030E040E050E00E946C0CC901DA01A6
:100630005C016D01C201B10125E030E040E050E015
:100640000E946C0C79018A0137014801AE14BF0485
:10065000C006D10608F092CF85E00E94F306089408
:10066000A11CB11CC11CD11CAE14BF04C006D10614
:1006700098F384CF25E030E040E050E00E946C0C1D
:10068000822F80580E94990760913701709138013C
:100690008091390190913A0125E030E040E050E04E
:1006A0000E946C0CC901DA015C016D01C201B1014B
:1006B00025E030E040E050E00E946C0C79018A01B6
:1006C00037014801AE14BF04C006D10608F0DBCEE6
:1006D00085E00E94F3060894A11CB11CC11CD11C2A
:1006E000AE14BF04C006D10698F3CDCE2F923F9230
:1006F0004F925F926F927F928F929F92AF92BF9232
:10070000CF92DF92EF92FF920F931F93DF93CF93DD
:1007100000D0CDB7DEB70E94B80A0E94280180E061
:1007200090E02CE231E0F9013197F1F7019647E2D0
:1007300080319407C1F778940E94FA000E94E70084
:100740000E94CE00609184007091850080918800A5
:10075000909189009A83898380E090E02FE430E0D3
:1007600040E050E00E94390C2FEF3FEF40E050E0B6
:100770000E946C0C19012A016091370170913801B7
:100780008091390190913A0126163706480659069C
:1007900008F014C1C201B10125E030E040E050E0B2
:1007A0000E946C0C59016A0135014601822F805864
:1007B0000E94990760913701709138018091390149
:1007C00090913A0125E030E040E050E00E946C0C4E
:1007D000C901DA017C018D01EA14FB040C051D0539
:1007E00068F480E00E94F3060894E11CF11C011DEE
:1007F000111DEA14FB040C051D0598F3C201B1019B
:1008000025E030E040E050E00E946C0C862F0E9412
:10081000F30680E00E94F3060894611C711C811CA1
:10082000911C90E1691671048104910491F7209262
:100830003701309238014092390150923A01E981F2
:10084000FA81BF0180E090E02FE430E040E050E02A
:100850000E94390C2FEF3FEF40E050E00E946C0CFB
:1008600019012A01609133017091340180913501A1
:1008700090913601261637064806590608F062C0E0
:10088000C201B10125E030E040E050E00E946C0C74
:1008900059016A0135014601822F80540E9499074F
:1008A000609133017091340180913501909136014E
:1008B00025E030E040E050E00E946C0CC901DA0114
:1008C0007C018D01EA14FB040C051D0568F480E031
:1008D0000E94F3060894E11CF11C011D111DEA148D
:1008E000FB040C051D0598F3C201B10125E030E0C1
:1008F00040E050E00E946C0C862F0E94F30680E0DE
:100900000E94F3060894611C711C811C911CF0E18B
:100910006F1671048104910491F720923301309293
:100920003401409235015092360120E030E08CE2F3
:1009300091E00197F1F72F5F3F4F43E0283E3407E6
:10094000B1F700CF25E030E040E050E00E946C0CB1
:10095000822F80540E949907609133017091340175
:10096000809135019091360125E030E040E050E083
:100970000E946C0CC901DA015C016D01C201B10178
:1009800025E030E040E050E00E946C0C79018A01E3
:1009900037014801AE14BF04C006D10608F0A4CF49
:1009A00085E00E94F3060894A11CB11CC11CD11C57
:1009B000AE14BF04C006D10698F396CF25E030E010
:1009C00040E050E00E946C0C822F80580E949907F2
:1009D00060913701709138018091390190913A010D
:1009E00025E030E040E050E00E946C0CC901DA01E3
:1009F0005C016D01C201B10125E030E040E050E052
:100A00000E946C0C79018A0137014801AE14BF04C1
:100A1000C006D10608F0F2CE85E00E94F3060894E5
:100A2000A11CB11CC11CD11CAE14BF04C006D10650
:100A300098F3E4CE429A98B1482F50E0881F882757
:100A4000881F8295880F880F807C9A01369527959C
:100A500020723070822B9778892B9A0136952795D2
:100A600020713070822B9A0136952795287030704E
:100A7000822B88B900C00000429800C00000429A52
:100A800028B1CA0181709070880F991F880F991F33
:100A9000880F991F2778282BCA01880F991F880F64
:100AA000991F880F991F80749070282B440F551F31
:100AB000440F551F440F551FCA0180729070282B98
:100AC00040715070242B28B900C00000429800C02B
:100AD00000000895CF92DF92EF92FF920F931F9341
:100AE00087B1877887B988B1877888B9429A00C07A
:100AF000000046B166B1E6B106B1429800C0000000
:100B0000429A00C00000A6B1E6B0C6B086B14298D5
:100B100000C0000027B1286727B990E09595879518
:100B20009595879595958795817050E0042E452F72
:100B3000000C441F550B000C441F551F5695542F95
:100B4000442757954795842B70E0660F771F607494
:100B50007070862BF0E0EE0FFF1FE072F0708E2BAE
:100B600010E0000F111F00711070802BB0E0B695DF
:100B7000A795B695A795B695A795A870B0708A2B3E
:100B8000FF24F694E794F694E794F694E79494E0BF
:100B9000E922FF248E29DD24D694C794D694C794E5
:100BA000D694C79492E0C922DD248C291F910F911D
:100BB000FF90EF90DF90CF9008954098419A00C049
:100BC000000087B1877887B988B1877888B9429A59
:100BD00000C0000096B186B186B186B1429800C0CF
:100BE0000000429A00C0000086B186B186B186B18D
:100BF000429800C0000087B1886787B992959695A2
:100C00009695937090FDD9CF0895CF92DF92EF9291
:100C1000FF920F931F934098419A00C0000087B144
:100C2000877887B988B1877888B9429A00C0000070
:100C300046B166B1E6B106B1429800C00000429AE2
:100C400000C00000A6B1E6B0C6B086B1429800C0B0
:100C5000000027B1286727B990E09595879595956D
:100C6000879595958795817050E0042E452F000C4F
:100C7000441F550B000C441F551F5695542F4427F5
:100C800057954795842B70E0660F771F60747070DE
:100C9000862BF0E0EE0FFF1FE072F0708E2B10E05D
:100CA000000F111F00711070802BB0E0B695A79552
:100CB000B695A795B695A795A870B0708A2BFF2416
:100CC000F694E794F694E794F694E79494E0E92296
:100CD000FF248E29DD24D694C794D694C794D69445
:100CE000C79492E0C922DD248C291F910F91FF90B7
:100CF000EF90DF90CF900895CF92DF92EF92FF9226
:100D00000F931F93409A419A00C0000087B18778E3
:100D100087B988B1877888B9429A00C0000046B187
:100D200066B1E6B106B1429800C00000429A00C028
:100D30000000A6B1E6B0C6B086B1429800C000007F
:100D400027B1286727B990E0959587959595879560
:100D500095958795817050E0042E452F000C441F17
:100D6000550B000C441F551F5695542F442757957B
:100D70004795842B70E0660F771F60747070862B28
:100D8000F0E0EE0FFF1FE072F0708E2B10E0000F0E
:100D9000111F00711070802BB0E0B695A795B69525
:100DA000A795B695A795A870B0708A2BFF24F694E6
:100DB000E794F694E794F694E79494E0E922FF240C
:100DC0008E29DD24D694C794D694C794D694C7941C
:100DD00092E0C922DD248C291F910F91FF90EF90A2
:100DE000DF90CF900895382F4098419A00C00000BE
:100DF00087B1877887B988B1877888B9429A00C067
:100E0000000096B186B186B186B1429800C000005C
:100E1000429A00C0000086B186B186B186B1429880
:100E200000C0000087B1886787B99295969596951E
:100E3000937090FDD9CF409A419800C00000429A2B
:100E400028B1432F50E0331F3327331F3295330F20
:100E5000330F307CCA019695879580729070382B3D
:100E60002778322BCA019695879580719070382B20
:100E7000CA019695879588709070382B38B900C054
:100E80000000429800C00000429A28B1CA01817057
:100E90009070880F991F880F991F880F991F2778C6
:100EA000282BCA01880F991F880F991F880F991F37
:100EB00080749070282B440F551F440F551F440F0A
:100EC000551FCA0180729070282B40715070242BDE
:100ED00028B900C00000429800C000000895409862
:100EE000419A00C0000087B1877887B988B18778B8
:100EF00088B9429A00C0000096B186B186B186B129
:100F0000429800C00000429A00C0000086B186B13D
:100F100086B186B1429800C0000087B1886787B962
:100F200080E0929596959695937090FF089581E054
:100F30000895382F4098419A00C0000087B1877803
:100F400087B988B1877888B9429A00C0000096B105
:100F500086B186B186B1429800C00000429A00C0B6
:100F6000000086B186B186B186B1429800C000000B
:100F700087B1886787B9929596959695937090FDFD
:100F8000D9CF4098419800C00000429A28B1432F21
:100F900050E0331F3327331F3295330F330F307C2C
:100FA000CA019695879580729070382B2778322BDE
:100FB000CA019695879580719070382BCA019695D5
:100FC000879588709070382B38B900C0000042981F
:100FD00000C00000429A28B1CA0181709070880F49
:100FE000991F880F991F880F991F2778282BCA01EE
:100FF000880F991F880F991F880F991F8074907010
:10100000282B440F551F440F551F440F551FCA016D
:1010100080729070282B40715070242B28B900C02A
:101020000000429800C000000895FC013081332385
:1010300009F47FC031964098419A00C0000087B102
:10104000877887B988B1877888B9429A00C000004C
:1010500096B186B186B186B1429800C00000429A2E
:1010600000C0000086B186B186B186B1429800C04A
:10107000000087B1886787B9929596959695937089
:1010800090FDD9CF409A419800C00000429A28B103
:10109000432F50E0331F3327331F3295330F330F65
:1010A000307CCA019695879580729070382B27788E
:1010B000322BCA019695879580719070382BCA01A2
:1010C0009695879588709070382B38B900C00000CD
:1010D000429800C00000429A28B1CA018170907005
:1010E000880F991F880F991F880F991F2778282B21
:1010F000CA01880F991F880F991F880F991F807444
:101100009070282B440F551F440F551F440F551F37
:10111000CA0180729070282B40715070242B28B91E
:1011200000C00000429800C000003081332309F065
:1011300081CF0895382F4098419A00C0000087B1B0
:10114000877887B988B1877888B9429A00C000004B
:1011500096B186B186B186B1429800C00000429A2D
:1011600000C0000086B186B186B186B1429800C049
:10117000000087B1886787B9929596959695937088
:1011800090FDD9CF409A419800C00000429A28B102
:10119000432F50E0331F3327331F3295330F330F64
:1011A000307CCA019695879580729070382B27788D
:1011B000322BCA019695879580719070382BCA01A1
:1011C0009695879588709070382B38B900C00000CC
:1011D000429800C00000429A28B1CA018170907004
:1011E000880F991F880F991F880F991F2778282B20
:1011F000CA01880F991F880F991F880F991F807443
:101200009070282B440F551F440F551F440F551F36
:10121000CA0180729070282B40715070242B28B91D
:1012200000C00000429800C000000895FB01382F64
:1012300030684098419A00C0000087B1877887B92C
:1012400088B1877888B9429A00C0000096B186B10B
:1012500086B186B1429800C00000429A00C00000EA
:1012600086B186B186B186B1429800C0000087B1D0
:10127000886787B9929596959695937090FDD9CF8A
:101280004098419800C00000429A28B1432F50E096
:10129000331F3327331F3295330F330F307CCA018E
:1012A0009695879580729070382B2778322BCA01DB
:1012B0009695879580719070382BCA019695879581
:1012C00088709070382B38B900C00000429800C078
:1012D0000000429A28B1CA0181709070880F991F4E
:1012E000880F991F880F991F2778282BCA01880F0C
:1012F000991F880F991F880F991F80749070282B51
:10130000440F551F440F551F440F551FCA018072CB
:101310009070282B40715070242B28B900C0000019
:10132000429800C000003081332351F1319640983B
:10133000419A00C0000087B1877887B988B1877863
:1013400088B9429A00C0000096B186B186B186B1D4
:10135000429800C00000429A00C0000086B186B1E9
:1013600086B186B1429800C0000087B1886787B90E
:10137000929596959695937090FDD9CF409A81CF8E
:101380000895382F30584098419A00C0000087B126
:10139000877887B988B1877888B9429A00C00000F9
:1013A00096B186B186B186B1429800C00000429ADB
:1013B00000C0000086B186B186B186B1429800C0F7
:1013C000000087B1886787B9929596959695937036
:1013D00090FDD9CF4098419800C00000429A28B1B2
:1013E000432F50E0331F3327331F3295330F330F12
:1013F000307CCA019695879580729070382B27783B
:10140000322BCA019695879580719070382BCA014E
:101410009695879588709070382B38B900C0000079
:10142000429800C00000429A28B1CA0181709070B1
:10143000880F991F880F991F880F991F2778282BCD
:10144000CA01880F991F880F991F880F991F8074F0
:101450009070282B440F551F440F551F440F551FE4
:10146000CA0180729070282B40715070242B28B9CB
:1014700000C00000429800C000004098419A00C09F
:10148000000087B1877887B988B1877888B9429A90
:1014900000C0000096B186B186B186B1429800C006
:1014A0000000429A00C0000086B186B186B186B1C4
:1014B000429800C0000087B1886787B992959695D9
:1014C0009695937090FDD9CF409A419800C0000046
:1014D000429A28B1462F50E0661F6627661F629524
:1014E000660F660F607CCA01969587958072907032
:1014F000682B2778622BCA0196958795807190702A
:10150000682BCA019695879588709070682B68B98A
:1015100000C00000429800C00000429A28B1CA01F1
:1015200081709070880F991F880F991F880F991FDD
:101530002778282BCA01880F991F880F991F880FB9
:10154000991F80749070282B440F551F440F551F0E
:10155000440F551FCA0180729070282B4071507043
:10156000242B28B900C00000429800C00000089554
:1015700087B1886787B987B1876087B940984198F4
:1015800000C00000429A88B18778806188B900C0A5
:101590000000429800C000004098419A00C000003E
:1015A00087B1877887B988B1877888B9429A00C0AF
:1015B000000096B186B186B186B1429800C00000A5
:1015C000429A00C0000086B186B186B186B14298C9
:1015D00000C0000087B1886787B992959695969567
:1015E000937090FDD9CF4098419800C00000429A76
:1015F00088B18778806188B900C00000429800C037
:101600000000429A88B18778806488B900C00000E1
:10161000429800C000004098419A00C0000087B185
:10162000877887B988B1877888B9429A00C0000066
:1016300096B186B186B186B1429800C00000429A48
:1016400000C0000086B186B186B186B1429800C064
:10165000000087B1886787B99295969596959370A3
:1016600090FDD9CF4098419800C00000429A88B1BF
:101670008778806188B900C00000429800C00000EF
:10168000429A88B18778806488B900C00000429887
:1016900000C000004098419A00C0000087B18778E0
:1016A00087B988B1877888B9429A00C0000096B19E
:1016B00086B186B186B1429800C00000429A00C04F
:1016C000000086B186B186B186B1429800C00000A4
:1016D00087B1886787B9929596959695937090FD96
:1016E000D9CF4098419800C00000429A88B18778CD
:1016F00088B900C00000429800C00000429A88B13A
:101700008778806688B900C00000429800C0000059
:101710004098419A00C0000087B1877887B988B1A6
:10172000877888B9429A00C0000096B186B186B128
:1017300086B1429800C00000429A00C0000086B105
:1017400086B186B186B1429800C0000087B1886733
:1017500087B9929596959695937090FDD9CF4098BC
:10176000419800C00000429A88B1877888B900C0CB
:101770000000429800C00000429A88B187788063D8
:1017800088B900C00000429800C000004098419A0B
:1017900000C0000087B1877887B988B1877888B999
:1017A000429A00C0000096B186B186B186B14298D7
:1017B00000C00000429A00C0000086B186B186B128
:1017C00086B1429800C0000087B1886787B99295BA
:1017D00096959695937090FDD9CF4098419800C00A
:1017E0000000429A88B1877888B900C0000042980A
:1017F00000C00000429A88B18778886088B900C02C
:101800000000429800C0000008951092C50087E6CD
:101810008093C40088E18093C10086E08093C20079
:101820000895982F8091C00085FFFCCF9093C6004B
:1018300008958091C00087FFFCCF8091C600089575
:10184000FC019081992351F031968091C00085FF71
:10185000FCCF9093C60090819923B1F70895982FFB
:101860008091C00085FFFCCF9093C60080E090E09F
:101870000895629FD001739FF001829FE00DF11DDA
:10188000649FE00DF11D929FF00D839FF00D749FFA
:10189000F00D659FF00D9927729FB00DE11DF91FA6
:1018A000639FB00DE11DF91FBD01CF011124089503
:1018B000AA1BBB1B51E107C0AA1FBB1FA617B70776
:1018C00010F0A61BB70B881F991F5A95A9F7809592
:1018D0009095BC01CD010895A1E21A2EAA1BBB1B55
:1018E000FD010DC0AA1FBB1FEE1FFF1FA217B307EC
:1018F000E407F50720F0A21BB30BE40BF50B661F02
:10190000771F881F991F1A9469F7609570958095C5
:1019100090959B01AC01BD01CF010895AEE0B0E010
:10192000E4E9FCE00C944A0F0D891E898F89988D9B
:1019300097FF02C080E090E801979E838D831A8311
:10194000098386E08C839E01255E3F4FCE01019680
:10195000698D7A8DA9010E94BF0C4D815E8157FD72
:101960000AC02F813885421753070CF49A01020FE1
:10197000131FF80110822E96E4E00C94660FABE082
:10198000B0E0E5ECFCE00C943C0F3C012B015A016B
:10199000FC0117821682838181FD03C06FEF7FEF08
:1019A000C6C19AE0892E1E010894211C311CF30146
:1019B0002381F20123FD859123FF81912F0188234B
:1019C00009F4B2C1853239F423FD859123FF819159
:1019D0002F01853229F490E0B3010E94B20EE7CFC7
:1019E000982FFF24EE249924FFE1FF15D0F09B32BD
:1019F00069F09C3228F4903259F0933291F40EC081
:101A00009D3249F0903369F441E024C052E0F52A58
:101A100084E0F82A28C098E0F92A25C0E0E1FE2AEF
:101A200022C0F7FC29C0892F80538A3070F4F6FE5B
:101A300005C0989C902C1124980E15C0E89CE02CB1
:101A40001124E80EF0E2FF2A0EC09E3229F4F6FCC3
:101A50006BC140E4F42A07C09C3619F450E8F52A1B
:101A600002C0983649F4F20123FD959123FF91912C
:101A70002F01992309F0B8CF892F8554833018F0AE
:101A80008052833038F444E050E0A40EB51E5FE38A
:101A900059830FC0933631F0933779F0933509F0BD
:101AA00056C020C0F5018081898342E050E0A40E39
:101AB000B51E610101E010E012C0F501C080D180C7
:101AC000F6FC03C06FEF7FEF02C0692D70E042E0CB
:101AD00050E0A40EB51EC6010E94A70E8C015FE760
:101AE000F52214C0F501C080D180F6FC03C06FEF71
:101AF0007FEF02C0692D70E042E050E0A40EB51EF9
:101B0000C6010E949C0E8C0150E8F52AF3FE07C026
:101B10001AC080E290E0B3010E94B20EEA948E2DCA
:101B200090E008171907A8F30EC0F601F7FC85919D
:101B3000F7FE81916F0190E0B3010E94B20EE110B7
:101B4000EA94015010400115110579F7EAC0943666
:101B500011F0993669F5F7FE08C0F5012081318151
:101B60004281538184E090E00AC0F5018081918137
:101B70009C01442737FD4095542F82E090E0A80E49
:101B8000B91E9FE6F92257FF09C050954095309540
:101B900021953F4F4F4F5F4FE0E8FE2ACA01B90140
:101BA000A1012AE030E00E94DE0ED82ED21840C0FB
:101BB000953729F41F2D1F7E2AE030E01DC01F2D10
:101BC000197F9F3661F0903720F4983509F0ACC04A
:101BD0000FC0903739F0983709F0A6C004C028E04C
:101BE00030E00AC0106114FD146020E130E004C050
:101BF00014FD166020E132E017FF08C0F501608196
:101C000071818281938144E050E008C0F5018081B8
:101C10009181BC0180E090E042E050E0A40EB51E4E
:101C2000A1010E94DE0ED82ED2188FE7F82EF122E5
:101C3000F6FE0BC05EEFF522D91438F4F4FE07C0AF
:101C4000F2FC05C08FEEF82202C01D2D01C0192D37
:101C5000F4FE0DC0FE01ED0DF11D8081803319F4FD
:101C600099EEF92208C01F5FF2FE05C003C08F2D58
:101C7000867809F01F5F0F2DF3FC14C0F0FE0FC033
:101C80001E1510F09D2C0BC09D2C9E0C911A1E2D24
:101C900006C080E290E0B3010E94B20E1F5F1E15E5
:101CA000C0F304C01E1510F4E11A01C0EE2404FFB5
:101CB0000FC080E390E0B3010E94B20E02FF1DC08E
:101CC00001FD03C088E790E00EC088E590E00BC0FE
:101CD000802F867891F001FF02C08BE201C080E284
:101CE000F7FC8DE290E0B3010E94B20E06C080E3E3
:101CF00090E0B3010E94B20E9A94D914C0F3DA9422
:101D0000F101ED0DF11D808190E0B3010E94B20E52
:101D1000DD20A9F706C080E290E0B3010E94B20E78
:101D2000EA94EE20C1F743CEF30166817781CB01BF
:101D30002B96E2E10C94580FFC0105906150704025
:101D40000110D8F7809590958E0F9F1F0895FC0184
:101D50006150704001900110D8F7809590958E0FDA
:101D60009F1F08950F931F93CF93DF938C01EB0177
:101D70008B8181FF1BC082FF0DC02E813F818C8132
:101D80009D812817390764F4E881F9810193F9836B
:101D9000E88306C0E885F985802F0995892B31F401
:101DA0008E819F8101969F838E8302C00FEF1FEF6C
:101DB000C801DF91CF911F910F910895FA01AA27D1
:101DC000283051F1203181F1E8946F936E7F6E5F7E
:101DD0007F4F8F4F9F4FAF4FB1E03ED0B4E03CD02C
:101DE000670F781F891F9A1FA11D680F791F8A1F0F
:101DF000911DA11D6A0F711D811D911DA11D20D076
:101E000009F468943F912AE0269F11243019305D2F
:101E10003193DEF6CF010895462F4770405D419320
:101E2000B3E00FD0C9F7F6CF462F4F70405D4A336D
:101E300018F0495D31FD4052419302D0A9F7EACF35
:101E4000B4E0A6959795879577956795BA95C9F764
:101E500000976105710508959B01AC010A2E069457
:101E60005795479537952795BA95C9F7620F731F10
:101E7000841F951FA01D08952F923F924F925F924D
:101E80006F927F928F929F92AF92BF92CF92DF928A
:101E9000EF92FF920F931F93CF93DF93CDB7DEB7EF
:101EA000CA1BDB0B0FB6F894DEBF0FBECDBF099483
:101EB0002A88398848885F846E847D848C849B84DA
:101EC000AA84B984C884DF80EE80FD800C811B81E8
:101ED000AA81B981CE0FD11D0FB6F894DEBF0FBE17
:101EE000CDBFED010895F894FFCF54696D65722060
:101EF0006163746976617400253032640054696DE1
:101F000065722064657A61637469766174000000AB
:101F1000100018001C001E001F00FFFFFFFFFFFF46
:101F2000FFFFFFFFFFFFFFFFFFFFFFFFFFFFFFFFC1
:101F3000FFFFFFFFFFFFFFFFFFFFFFFFFFFFFFFFB1
:101F4000FFFFFFFFFFFFFFFFFFFFFFFFFFFFFFFFA1
:101F5000FFFFFFFFFFFFFFFFFFFFFFFFFFFFFFFF91
:101F6000FFFFFFFFFFFFFFFFFFFFFFFFFFFFFFFF81
:101F7000FFFFFFFFFFFFFFFFFFFFFFFFFFFFFFFF71
:101F80000694A1F70590079420F4490F561FC71F28
:101F9000D81F990F661F771F881F0694A9F7849191
:101FA0001095177041F0D695C79557954795F794BA
:101FB000E7941A95C1F7E4E8F0E06894159015915C
:101FC00035916591959105907FE27395E118F10A3D
:101FD000430B560BC90BD009C0F7E10CF11E431F90
:101FE000561FC91FD01D7EF4703311F48A95E6CFB9
:101FF000E894015030F0080F0AF40027021708F4A3
:10200000202F2395022F7A3328F079E37D932A95A8
:10201000E9F710C07D932A9589F606949795679500
:10202000379517951794E118F10A430B560BC90B16
:10203000D00998F023957E9173957A3308F070E378
:102040007C932013B8F77E9170617D9330F0839577
:1020500071E37D9370E32A95E1F71124EF90FF90EF
:102060000F911F91CF91DF91992787FD909508954A
:10207000FC010590615070400110D8F78095909553
:102080008E0F9F1F0895FC01615070400190011058
:10209000D8F7809590958E0F9F1F08950F931F93EB
:1020A000CF93DF93182F092FEB018B8181FD09C09E
:1020B0001FEF0FEF812F902FDF91CF911F910F9185
:1020C000089582FF14C02E813F818C819D81281745
:1020D00039073CF4E881F981CF010196998388831F
:1020E00010838E819F8101969F838E83E3CFE88545
:1020F000F985812F0995892BA1F3DACFAEE0B0E005
:10210000E4E8F0E10C94CE0D0D891E8986E08C8305
:102110001A8309838FEF9FE79E838D83AE01475E0D
:102120005F4F6F89788DCE0101960E94EE092F8155
:102130003885020F131FF80110822E96E4E00C94EC
:10214000EA0DFA01AA27283051F1203181F1E894F3
:102150006F936E7F6E5F7F4F8F4F9F4FAF4FB1E09A
:102160003ED0B4E03CD0670F781F891F9A1FA11D95
:10217000680F791F8A1F911DA11D6A0F711D811D96
:10218000911DA11D20D009F468943F912AE0269F5B
:1021900011243019305D3193DEF6CF010895462FBA
:1021A0004770405D4193B3E00FD0C9F7F6CF462F9B
:1021B0004F70405D4A3318F0495D31FD4052419304
:1021C00002D0A9F7EACFB4E0A695979587957795C1
:1021D0006795BA95C9F700976105710508959B0148
:1021E000AC010A2E06945795479537952795BA95D1
:1021F000C9F7620F731F841F951FA01D0895F894DF
:10220000FFCF42F401F401F4015E019600F4015E97
:102210000196008A02F401F401F4015E019600F4D3
:10222000015E0196008A02F4012C0196009001C81B
:1022300000C8007D007D00FA00FA009001C800C8C7
:10224000007D007D00FA007D00F40177017D00F43F
:102250000177017D008A02F4012C0196009001C8EB
:1022600000C8007D007D00FA00FA009001C800C897
:10227000007D007D00FA00FA00F40177017D00F492
:102280000177017D008A02B801B801B8015D010B38
:1022900002B8015D010B02B801930293029302BAE6
:1022A000020B029F015D010B02B8017003B801B877
:1022B0000170033E031003E402BA02E402C7016E98
:1022C000024B022A020B02D2010B025D019F015D4B
:1022D00001B8010B02B8010B0293027003B801B8F8
:1022E0000170033E031003E402BA02E402C7016E68
:1022F000024B022A020B02D2010B025D019F015D1B
:10230000010B02B8015D010B02B8010000010008D9
:10231000004000000100040000100018001C001E16
:10232000001F0025322E32664D487A0025322E32AB
:10233000666B487A0025322E326620487A00535464
:102340004F5050454400520047004200FFFFFFFF3E
:10235000FFFFFFFFFFFFFFFFFFFFFFFFFFFFFFFF8D
:10236000FFFFFFFFFFFFFFFFFFFFFFFFFFFFFFFF7D
:10237000FFFFFFFFFFFFFFFFFFFFFFFFFFFFFFFF6D
:10238000FFFFFFFFFFFFFFFFFFFFFFFFFFFFFFFF5D
:107800000C943E3C0C945B3C0C945B3C0C945B3CB9
:107810000C945B3C0C945B3C0C945B3C0C945B3C8C
:107820000C945B3C0C945B3C0C945B3C0C945B3C7C
:107830000C945B3C0C945B3C0C945B3C0C945B3C6C
:107840000C945B3C0C945B3C0C945B3C0C945B3C5C
:107850000C945B3C0C945B3C0C945B3C0C945B3C4C
:107860000C945B3C0C945B3C0C945B3C0C945B3C3C
:107870000C945B3C0C945B3C0C945B3C11241FBE51
:10788000CFEFD8E0DEBFCDBF11E0A0E0B1E0E2EF86
:10789000FDE702C005900D92A230B107D9F722E0B2
:1078A000A2E0B1E001C01D92AD30B207E1F70E9445
:1078B000143D0C94F73E0C94003C9091C00095FF51
:1078C000FCCF8093C6000895CF93982F859585951A
:1078D00085958595805D9F709A3014F0C7E501C04D
:1078E000C0E3C90F0E945D3C8C2FCF910C945D3C8E
:1078F000CF92DF92EF92FF92C12CD12C7601809132
:10790000C00087FD13C08FEFC81AD80AE80AF80A2A
:1079100081EBC81681E7D8068BE0E806F10478F31E
:10792000E0910201F09103010995E9CF8091C60031
:10793000FF90EF90DF90CF900895CF930E94783C16
:10794000C82F0E945D3CC13614F089EA03C0C033E1
:107950001CF080ED8C0F01C08C2FCF910895CF9338
:107960000E949D3CC82F0E949D3C90E1C99F800DC4
:107970001124CF910895CF93C82FCC2321F00E94DA
:10798000783CC150FACFCF910895CF93C82F0E9471
:10799000783C803251F484E10E945D3C8C2F0E943F
:1079A0005D3C80E1CF910C945D3C809104018F5F40
:1079B00080930401853031F4E0910201F0910301DC
:1079C000CF910994CF9108950E94783C803231F490
:1079D00084E10E945D3C80E10C945D3C8091040157
:1079E0008F5F80930401853029F4E0910201F091CA
:1079F0000301099408958823B1F0409A2FE739EAEA
:107A000093E0215030409040E1F700C000004098E2
:107A10002FE739EA93E0215030409040E1F700C071
:107A200000008150E8CF08950000E0E0F0E0E4912C
:107A30008CE08093C4001092C50088E18093C1005F
:107A400086E08093C2005098589A389A81E00E944C
:107A5000FB3CFF24F3940E94783C803309F442C03D
:107A60008133E1F40E94783C803209F09CC184E1CA
:107A70000E945D3C81E40E945D3C86E50E945D3C85
:107A800082E50E945D3C80E20E945D3C89E40E94A8
:107A90005D3C83E50E945D3C80E57CC1803439F427
:107AA0000E94783C8638F0F00E94783C1BC08134FC
:107AB000A1F40E94783C803811F482E003C0813840
:107AC00021F481E00E94C53CC6CF823811F480E1E8
:107AD000F9CF8839C9F583E0F5CF823431F484E1F8
:107AE0000E94BB3C0E94E43CB6CF853411F485E093
:107AF000F7CF982F9D7F9035A9F3813599F3853580
:107B000049F40E94783C809306010E94783C80935F
:107B10000701E8CF8635D1F40E94783C803389F4A0
:107B20000E94783C0E94783C182F0E94783C1111EA
:107B300002C08EE1C7CF113011F485E9C3CF88E0D0
:107B4000C1CF83E00E94BB3C80E0BCCF843609F00B
:107B5000C3C00E94783C809309020E94783C8093C5
:107B6000080280910C028E7F80930C020E94783C68
:107B7000853429F480910C02816080930C0208E026
:107B800011E02091080230910902C801885091400B
:107B90008217930730F40E94783CF80181938F019B
:107BA000F0CF0E94783C803209F0FDC080910C0239
:107BB000209106013091070180FF26C0220F331F5C
:107BC000309307012093060108E011E0209108029C
:107BD00030910902C801885091408217930708F03C
:107BE00079C0F80161918F018091060190910701A0
:107BF0000E94E93E809106019091070101969093C1
:107C0000070180930601E2CF80910701880F880B5E
:107C10008F2180930B02220F331F30930701209393
:107C200006018091080280FF09C0809108029091AE
:107C3000090201969093090280930802F894F99939
:107C4000FECF1127E0910601F0910701C8E0D1E0D5
:107C50008091080290910902103091F40091570030
:107C600001700130D9F303E000935700E8950091CB
:107C7000570001700130D9F301E100935700E895F6
:107C8000099019900091570001700130D9F301E07B
:107C900000935700E8951395103498F01127009140
:107CA000570001700130D9F305E000935700E895C3
:107CB0000091570001700130D9F301E100935700A2
:107CC000E8953296029709F0C7CF103011F002966E
:107CD000E5CF112484E15EC0843709F04BC00E94D7
:107CE000783C809309020E94783C8093080280913E
:107CF000060190910701880F991F909307018093C7
:107D000006010E94783C90910C02853411F4916038
:107D100001C09E7F90930C020E94783C803209F053
:107D20009ACE84E10E945D3C00E010E08091080260
:107D3000909109020817190778F520910C0280919B
:107D400006019091070120FF03C00E94E13E04C09C
:107D500021FD04C0FC0184910E945D3C80910601DC
:107D600090910701019690930701809306010F5FA0
:107D70001F4FDCCF8537A1F40E94783C803299F404
:107D800084E10E945D3C8EE10E945D3C85E90E9499
:107D90005D3C88E00E945D3C80E10E945D3C5BCEE2
:107DA000863709F4D1CE809104018F5F809304015E
:107DB000853009F050CEE0910201F0910301099560
:107DC0004ACEF999FECF92BD81BDF89A992780B528
:107DD0000895262FF999FECF1FBA92BD81BD20BD0F
:107DE0000FB6F894FA9AF99A0FBE01960895F8948E
:107DF000FFCF8000FFFFFFFFFFFFFFFFFFFFFFFF41
:107E0000FFFFFFFFFFFFFFFFFFFFFFFFFFFFFFFF82
:107E1000FFFFFFFFFFFFFFFFFFFFFFFFFFFFFFFF72
:107E2000FFFFFFFFFFFFFFFFFFFFFFFFFFFFFFFF62
:107E3000FFFFFFFFFFFFFFFFFFFFFFFFFFFFFFFF52
:107E4000FFFFFFFFFFFFFFFFFFFFFFFFFFFFFFFF42
:107E5000FFFFFFFFFFFFFFFFFFFFFFFFFFFFFFFF32
:107E6000FFFFFFFFFFFFFFFFFFFFFFFFFFFFFFFF22
:107E7000FFFFFFFFFFFFFFFFFFFFFFFFFFFFFFFF12
:107E8000FFFFFFFFFFFFFFFFFFFFFFFFFFFFFFFF02
:107E9000FFFFFFFFFFFFFFFFFFFFFFFFFFFFFFFFF2
:107EA000FFFFFFFFFFFFFFFFFFFFFFFFFFFFFFFFE2
:107EB000FFFFFFFFFFFFFFFFFFFFFFFFFFFFFFFFD2
:107EC000FFFFFFFFFFFFFFFFFFFFFFFFFFFFFFFFC2
:107ED000FFFFFFFFFFFFFFFFFFFFFFFFFFFFFFFFB2
:107EE000FFFFFFFFFFFFFFFFFFFFFFFFFFFFFFFFA2
:107EF000FFFFFFFFFFFFFFFFFFFFFFFFFFFFFFFF92
:107F0000FFFFFFFFFFFFFFFFFFFFFFFFFFFFFFFF81
:107F1000FFFFFFFFFFFFFFFFFFFFFFFFFFFFFFFF71
:107F2000FFFFFFFFFFFFFFFFFFFFFFFFFFFFFFFF61
:107F3000FFFFFFFFFFFFFFFFFFFFFFFFFFFFFFFF51
:107F4000FFFFFFFFFFFFFFFFFFFFFFFFFFFFFFFF41
:107F5000FFFFFFFFFFFFFFFFFFFFFFFFFFFFFFFF31
:107F6000FFFFFFFFFFFFFFFFFFFFFFFFFFFFFFFF21
:107F7000FFFFFFFFFFFFFFFFFFFFFFFFFFFFFFFF11
:107F8000FFFFFFFFFFFFFFFFFFFFFFFFFFFFFFFF01
:107F9000FFFFFFFFFFFFFFFFFFFFFFFFFFFFFFFFF1
:107FA000FFFFFFFFFFFFFFFFFFFFFFFFFFFFFFFFE1
:107FB000FFFFFFFFFFFFFFFFFFFFFFFFFFFFFFFFD1
:107FC000FFFFFFFFFFFFFFFFFFFFFFFFFFFFFFFFC1
:107FD000FFFFFFFFFFFFFFFFFFFFFFFFFFFFFFFFB1
:107FE000FFFFFFFFFFFFFFFFFFFFFFFFFFFFFFFFA1
:107FF000FFFFFFFFFFFFFFFFFFFFFFFFFFFFFFFF91
:00000001FF
